:030000000202E415
:0C02E400787FE4F6D8FD75815B02032BE7
:1005E800EF1FAA0670011E4A600BE4FDEDC3947864
:0505F80050EE0D80F73C
:0105FD0022DB
:1005FE00759850438920758DFD758BFDD28ED2AFC7
:06060E00D2ACE4F5B822B5
:10051D00C2AF30983385990FE50FB43105120697A8
:10052D008026E50FB432051206A0801CE50FB4330A
:10053D00051206B28012E50FB434051206BB800811
:0A054D00E50FB430031206A9D2AF87
:010557002281
:09069700D2A1C2A0D2A2C2A3228A
:0906A000C2A1D2A0C2A2D2A32281
:0906A900C2A1C2A0C2A2C2A32298
:0906B200C2A1D2A0D2A2C2A3226F
:0906BB00D2A1C2A0C2A2D2A32266
:10062A0053890F438910758BDCE4F58DC28FD28E06
:03063A00D2AB221E
:10061400758920758DFD758BFDE4F587759850D22D
:06062400AFD2ACD28E2221
:100558007580FE750A00750B047FF47E011205E8AC
:10056800AF807801EF08800123D8FDF580E50B15F1
:100578000B7002150AD3E50B9400E50A940050D9D4
:0205880080CE23
:1005BB00D296C297742A250BF8E6F580050BE50B4E
:1005CB007002050A7FF47E011205E8D3E50B940F48
:0D05DB00E50A940040DEE4F50AF50B80D738
:10063D00D296C297742A2FF8E6F5807FF47E0102D8
:02064D0005E8BE
:10047F007510FF851080C2907F057E001205E82061
:10048F0093037510012094037510022095037510C6
:10049F0003D290C2917F057E001205E82093037569
:1004AF001004209403751005209503751006D29142
:1004BF00C2927F057E001205E82093037510072076
:0F04CF009403751008209503751009D292AF1091
:0104DE0022FB
:0806C4007F027EEFDEFEDFFC89
:0106CC00220B
:10066000C293C2928F80D2931206C4C2930206C470
:10067000C293D2928F80D2931206C4C2930206C450
:10064F00C2937F381206607F0C1206607F0102068C
:01065F00603A
:0C068000EF75F040A424802DFF020660FE
:10058A008B0C8A0D890EED600343074043078012E6
:10059A000660AB0CAA0DA90E1202686013050EE5DF
:1005AA000E7002050D14F9120268FF12067080E23D
:0105BA00221E
:0306CD0000002208
:10037000E4F50DF50EC297C294D2951206CDD29433
:100380001206CDC294D2951206CDD2941206CDC2D9
:1003900094A20092951206CDD2941206CDC294D2A8
:1003A000951206CDE4F50CD2941206CDC294120635
:1003B000CDE50D25E0FFA295E4334FF50D050CE5E5
:1003C0000CC3940840E1E4F50CA295E433FFAE0CB5
:1003D000A806088002C333D8FC420ED2941206CD80
:1003E000C2941206CD050CE50CC3940840DBD297ED
:0A03F000E50DB50E03FF80027F004B
:0103FA0022E0
:0B068C00303132333435363738390056
:1004DF00012900025A0000102AC0F9A4B099928293
:1004EF00F880908883C6A1868E103A20566F6C7460
:1004FF006167650000000000000000104A204E6F89
:0D050F00773A202020202056200000000018
:1003FB0012064FE4FDFCFFFE120680C200120370D2
:10040B008F29AC29E41201B3E4FBFA79FA78431291
:10041B000003E4FBFA797F784312010C1201E78E9B
:10042B005A8F5B7C007D64120281EF2430F54F758F
:10043B00502EAE5AAF5B7C007D0A1202817C007D90
:10044B000A120281ED2430F551AE5AAF5B7C007D70
:10045B000A120281ED2430F5527B007A00793AE4DE
:10046B00FDFF12058A7B007A00794A7D01E4FF12B9
:04047B00058A8087E7
:10000300EC4D6011E8497017ED33EC3304600DE4F7
:10001300FCFFFEFD22E933E8330470F802025312B9
:10002300021E58046009E4CC2481500628500902BA
:10003300025D28400302025AC0E0EB4A7044B980D3
:1000430006D0E0FB020249EF4E701CBD8008EBFFB7
:10005300EAFEE9FD80EBE98DF0A4FEE5F00200EC99
:10006300E9CDF9EAFEEBFFEF89F0A4FCE5F0CE89D8
:10007300F0A42EFFE435F0CD89F0A42DFEE435F095
:100083008067EF4E7005BD80D780C3EF8BF0A4ACC3
:10009300F0EE8BF0A42CFCE435F0F8EF8AF0A42CFE
:1000A300E5F038FCE433CB8DF0A42CFCE5F03BF811
:1000B300EE8AF0A42CFCE5F038F8E433CF89F0A401
:1000C3002CFCE5F038CF3400CE89F0A42FFFE5F007
:1000D3003EFEE433C98DF0A42EFEE5F039CD8AF05F
:1000E300A42FFFE5F03EFEE43DFD33D0E0FB5007D7
:1000F3000BBB000F02025DEC2CFCEF33FFEE33FE73
:06010300ED33FD020235A0
:1001090002025DEC5D046005E859047003020253C4
:1001190012021E580460F6EC4860F2EC7004FDFE11
:10012900FF22C860DB2481C85009C39860025006C9
:1001390002025A9850CAF582E9294B4A7005AB82E6
:1001490002024975F0007C1A7880C3EF9BEE9AEDA4
:1001590099400DC3EF9BFFEE9AFEED99FDE842F041
:10016900DC23ACF0D0E0FFD0E0FED0E0FDAB822094
:10017900E7101BEB60BAEC2CFCEF33FFEE33FEED1E
:1001890033FD020235E803F830E705C0F075F000E9
:10019900EF2FFFEE33FEED33FD40B830E7C280AA02
:1001A90075F020800E75F010800575F0087D007ED1
:1001B900007F003392D530D5031202D6EC334010BC
:1001C900EF33FFEE33FEED33FDEC33FCD5F0ED22DA
:0E01D900E5F0247EA2D513CC92E7CDCEFF2216
:1001E700EDD2E7CD33EC3392D524814006E4FFFE10
:1001F700FDFC22FCE4CFCECDCC24E0501174FF806F
:10020700EDC3CC13CCCD13CDCE13CECF13CF04700B
:07021700F030D5DE0202D633
:10021E00E9D2E7C933E833F892D5EDD2E7CD33EC26
:07022E0033FC5002B2D5229F
:10023500EC30E7100FBF000C0EBE00080DBD00042A
:100245000BEB6014A2D5EB13FCED92E7FD2274FFD6
:10025500FCFDFEFF22E480F8A2D574FF13FC7D802F
:03026500E480EF43
:1002F0000203FBE493A3F8E493A34003F68001F226
:1003000008DFF48029E493A3F85407240CC8C3330E
:10031000C4540F4420C8834004F456800146F6DFDD
:10032000E4800B01020408102040809004DFE47E8A
:10033000019360BCA3FF543F30E509541FFEE493D2
:10034000A360010ECF54C025E060A840B8E493A399
:10035000FAE493A3F8E493A3C8C582C8CAC583CAC4
:10036000F0A3C8C582C8CAC583CADFE9DEE780BE7C
:01051C0000DE
:10026800BB010689828A83E0225002E722BBFE0294
:09027800E32289828A83E49322C7
:10028100BC000BBE0029EF8DF084FFADF022E4CC61
:10029100F875F008EF2FFFEE33FEEC33FCEE9DEC2A
:1002A100984005FCEE9DFE0FD5F0E9E4CEFD22ED70
:1002B100F8F5F0EE8420D21CFEADF075F008EF2FBA
:1002C100FFED33FD4007985006D5F0F222C398FDAB
:0502D1000FD5F0EA2248
:0E02D600C3E49FFFE49EFEE49DFDE49CFC2239
:00000001FF
